:100000000C943E000C944A000C944A000C944A0054
:100010000C944A000C944A000C944A000C944A0038
:100020000C944A000C944A000C944A000C944A0028
:100030000C944A000C944A000C944A000C944A0018
:100040000C944A000C944A000C944A000C944A0008
:100050000C944A000C944A000C944A000C944A00F8
:100060000C944A000C944A000C944A000C944A00E8
:100070000C944A000C944A000C944A0011241FBEB0
:10008000CFEFD8E0DEBFCDBF0E944C000C944800FB
:04009000F894FFCF12
:040094000C940000C8
:02009800FFCF98
:00000001FF
